:1000000000400020096900004569000047690000C0
:1000100000000000000000000000000000000000E0
:10002000000000000000000000000000496900001E
:1000300000000000000000004B6900004D69000056
:100040004F6900004F6900004F6900004F690000D0
:100050004F690000000000004F6900004F69000078
:100060004F6900004F6900004F6900004F690000B0
:100070004F6900004F6900004F6900004F690000A0
:100080004F690000E16600004F6900004F69000001
:100090004F6900004F6900004F6900004F69000080
:1000A0004F6900004F6900000000000000000000E0
:1000B0000000000000000000000000000000000040
:1000C00010B5064C2378002B07D10548002802D034
:1000D000044800E000BF0121217010BD540400203D
:1000E0000000000040DD000008B5084B002B03D0E5
:1000F0000748084900E000BF07480168002903D00D
:10010000064A002A00D0904708BDC0460000000003
:1001100040DD0000580400205004002000000000D2
:10012000164B002B00D1144B9D46402292029A1A86
:10013000924600218B460F461348144A121A0CF0BF
:100140006BFA0F4B002B00D098470E4B002B00D0C2
:1001500098470020002104460D4600200C4900224B
:1001600000230CF06DF80CF013F92046294600F03E
:10017000C5F80CF0CDF8C046000008000040002093
:10018000000000000000000054040020B006002021
:1001900031C3000080B582B000AF786039600AE0FA
:1001A000A023DB057A68C132FF3292000121D150D1
:1001B0007B6801337B607A683B689A42F0D9BD4620
:1001C00002B080BD90B583B000AF7860A023DA059F
:1001D000A023D905064BC9587B680120041C9C400C
:1001E000231C5940024BD150BD4603B090BDC046C0
:1001F0000405000080B582B002AF06F021FA192094
:100200001921FFF7C7FF032006F0D6FA01F0B0FE70
:10021000031C01225340DBB2002B03D01A4B181CE5
:1002200001F0B8FB032006F0C7FA01F0BFF9174A46
:100230001749184BD150002300931320112112228B
:10024000102301F081FC0A200A210A22002300F079
:100250005FFD031C012B07D10F4B181C01F09AFB0B
:10026000322006F0A9FA0DE01920FFF7ABFF32208B
:1002700006F0A2FA094B181C01F08CFB084B181C65
:1002800001F088FBBD4680BDE8C9000000100040B9
:10029000700400200405000004CA000024CA000005
:1002A00028CA000080B500AFC046134A80235B0017
:1002B000D358002BF9D0104B01229A600E4A8623A6
:1002C0005B000021D150C0460B4A86235B00D35807
:1002D000002BF9D0084A88235B000021D150064B3F
:1002E00001221A61C046044A88235B00D358002BC0
:1002F000F9D0BD4680BDC0460010004080B500AFBB
:10030000FFF778FF0A2006F057FA254A80235B00A2
:100310000021D150224B01221A60032006F04CFA32
:10032000FFF7C0FF00F0E0FD031C002B2AD01D4B9F
:10033000181C01F02FFB1C4B181C01F08BF81B4BF9
:10034000181C01F027FB1A4B181C01F023FB194B5A
:10035000181C01F07FF8154B181C01F01BFB164B05
:10036000181C01F017FB154B181C01F073F80F4B0C
:10037000181C01F00FFB1920FFF724FF322006F0B4
:100380001BFACDE70E4B181C01F004FB0D4B181C9B
:1003900001F000FBFA239B00181C06F00DFABFE7E2
:1003A0000010004044CA0000AC04002024CA000031
:1003B0004CCA00003805002054CA0000E0040020A8
:1003C0005CCA000068CA000090B583B000AF7860D6
:1003D0007B681A687B681B68101C191C09F092FC6A
:1003E000031C1C1C7B6804331A687B6804331B687D
:1003F000101C191C09F086FC031C201C191C09F098
:10040000B9F8031C1C1C7B6808331A687B68083326
:100410001B68101C191C09F075FC031C201C191CFE
:1004200009F0A8F8031C1C1C7B680C331A687B6855
:100430000C331B68101C191C09F064FC031C201CE5
:10044000191C09F097F8031C181C0BF0E5FD031CA0
:100450000C1C181C211C06F087FB031C0C1C181C10
:10046000211C0BF02DFE031C181CBD4603B090BDD3
:1004700090B585B000AF78607B68181CFFF7A4FFCB
:10048000031CFB60F868002109F024F8031C002B12
:100490002DD17B681B68181CF96809F041FA031C10
:1004A0001A1C7B681A607B681C1D7B6804331B6800
:1004B000181CF96809F034FA031C23607B681C1CC3
:1004C00008347B6808331B68181CF96809F028FA9F
:1004D000031C23607B681C1C0C347B680C331B687A
:1004E000181CF96809F01CFA031C236000E0C046E0
:1004F000BD4605B090BDC046F0B5474680B484B057
:1005000000AF786039608B4BFB603B681D1D7B68DA
:100510001A687B6808331B68101C191C09F0F2FB71
:10052000031C1C1C7B6804331A687B680C331B6833
:10053000101C191C09F0E6FB031C201C191C09F0F7
:1005400011FD031C181C191C09F014F8031C181CBD
:100550000BF062FD031C0C1C181C211C06F0A4FAF5
:10056000031C0C1C181C211C0BF0AAFD031C2B6087
:100570003B6804331B68181CF96808F0B1FF031CC2
:10058000002B6DD03B6804331A68FB688021090694
:100590004B40101C191C08F0B7FF031C002B5FD048
:1005A0007B6808331A687B680C331B68101C191CA5
:1005B00009F0A8FB031C1C1C7B681A687B680433C9
:1005C0001B68101C191C09F09DFB031C201C191C26
:1005D00008F0D0FF031C181C191C08F0CBFF031CEB
:1005E000181C0BF019FD051C0E1C7B6804331A68DF
:1005F0007B6804331B68101C191C09F083FB031C67
:100600001C1C7B6808331A687B6808331B68101C45
:10061000191C09F077FB031C201C191C08F0AAFF09
:10062000031C181C191C08F0A5FF031CFE208005E4
:10063000191C09F097FC031C181C0BF0EDFC031CA3
:100640000C1C281C311C1A1C231C06F089FA031CE4
:100650000C1C181C211C0BF033FD021C3B681A609B
:100660003B680822D21890467B6804331A687B687E
:1006700008331B68101C191C09F044FB031C1C1CCC
:100680007B681A687B680C331B68101C191C09F006
:1006900039FB031C201C191C08F06CFF031C181CE0
:1006A000191C08F067FF031C181C0BF0B5FC051C97
:1006B0000E1C7B6808331A687B6808331B68101CA3
:1006C000191C09F01FFB031C1C1C7B680C331A68E7
:1006D0007B680C331B68101C191C09F013FB031CEE
:1006E000201C191C08F046FF031C181C191C08F0DC
:1006F00041FF031CFE208005191C09F033FC031C7C
:10070000181C0BF089FC031C0C1C281C311C1A1C27
:10071000231C06F025FA031C0C1C181C211C0BF0D2
:10072000CFFC031C42461360BD4604B004BC904697
:10073000F0BDC04674A9C23FB0B588B000AF7860C4
:1007400039607B681B68181C8021C90509F0E8F82E
:10075000031C181C0BF060FC031C0C1C181C211C37
:1007600006F0F6F8031C0C1C181C211C0BF0A8FC4E
:10077000031CFB617B681B68181C8021C90509F0FC
:10078000CFF8031C181C0BF047FC031C0C1C181C96
:10079000211C06F031F9031C0C1C181C211C0BF049
:1007A0008FFC031CBB617B6804331B68181C802111
:1007B000C90509F0B5F8031C181C0BF02DFC031C2F
:1007C0000C1C181C211C06F0C3F8031C0C1C181C64
:1007D000211C0BF075FC031C7B617B6804331B68D8
:1007E000181C8021C90509F09BF8031C181C0BF08C
:1007F00013FC031C0C1C181C211C06F0FDF8031C28
:100800000C1C181C211C0BF05BFC031C3B617B685F
:1008100008331B68181C8021C90509F081F8031CE6
:10082000181C0BF0F9FB031C0C1C181C211C06F0F7
:100830008FF8031C0C1C181C211C0BF041FC031C22
:10084000FB607B6808331B68181C8021C90509F010
:1008500067F8031C181C0BF0DFFB031C0C1C181C96
:10086000211C06F0C9F8031C0C1C181C211C0BF0E1
:1008700027FC031CBB60F869796909F043FA031C83
:10088000181CF96809F03EFA031C1C1CB869396988
:1008900009F038FA031C181CB96809F033FA031C74
:1008A000201C191C08F066FE031C1A1C3B681A6009
:1008B0003B681C1DB869796909F024FA031C181CEF
:1008C000F96809F01FFA031C1D1CF869396909F061
:1008D00019FA031C181CB96809F014FA031C281C27
:1008E000191C09F03FFB031C23603B681C1C0834E7
:1008F000F869396909F006FA031C181CF96809F04F
:1009000001FA031C1D1CB869796909F0FBF9031C85
:10091000181CB96809F0F6F9031C281C191C08F00A
:1009200029FE031C23603B681C1C0C34F8697969A0
:1009300009F0E8F9031C181CB96809F0E3F9031C75
:100940001D1CB869396909F0DDF9031C181CF96828
:1009500009F0D8F9031C281C191C09F003FB031C1F
:1009600023603B68181CFFF783FDBD4608B0B0BD8F
:1009700080B582B000AF786039607B681A683B68E8
:100980001A603B6804337A680432126880210906D1
:100990004A401A603B6808337A680832126880213E
:1009A00009064A401A603B680C337A680C321268B8
:1009B000802109064A401A60BD4602B080BDC0468B
:1009C000B0B58EB000AFF860B9607A60FB685A6865
:1009D0003B1C2C331A60FB689A683B1C2C335A6012
:1009E000FB68DA683B1C2C339A60BB685A683B1C76
:1009F00020331A60BB689A683B1C20335A60BB687E
:100A0000DA683B1C20339A60391C2C313A1C2032A6
:100A10003B1C1C33081C111C1A1C05F05FFD391C03
:100A20002C313A1C20323B1C1033081C111C1A1CA0
:100A300005F08CFDFB681A68BB681B68101C191C4C
:100A400009F060F9031C1A1CFB69101C191C09F041
:100A500089FA031C1A1C7B681A607B681C1DFB68E2
:100A60001A683B1C20331B68101C191C09F04AF93A
:100A7000031C1D1CBB681A683B1C2C331B68101C14
:100A8000191C09F03FF9031C281C191C08F072FD01
:100A9000031C1A1C3B1C10331B68101C191C08F08B
:100AA00069FD031C23607B681C1C0834FB681A6802
:100AB0003B1C20335B68101C191C09F023F9031C34
:100AC0001D1CBB681A683B1C2C335B68101C191C6E
:100AD00009F018F9031C281C191C08F04BFD031C15
:100AE0001A1C3B1C10335B68101C191C08F042FDDB
:100AF000031C23607B681C1C0C34FB681A683B1CBD
:100B000020339B68101C191C09F0FCF8031C1D1CE9
:100B1000BB681A683B1C2C339B68101C191C09F01D
:100B2000F1F8031C281C191C08F024FD031C1A1CD6
:100B30003B1C10339B68101C191C08F01BFD031C88
:100B40002360BD460EB0B0BD80B584B000AF786004
:100B50007B681B785BB2002B04DD3B1C0E3300224C
:100B60001A8039E07B681B785BB2002B04DA3B1CEF
:100B70000E3304221A802FE07B6801331B785BB2AE
:100B8000002B04DD3B1C0E3301221A8024E07B681D
:100B900001331B785BB2002B04DA3B1C0E330522B9
:100BA0001A8019E07B6802331B785BB2002B04DDEE
:100BB0003B1C0E3302221A800EE07B6802331B7846
:100BC0005BB2002B04DA3B1C0E3306221A8003E0D2
:100BD0003B1C0E3307221A803B1C0E331B88181C4B
:100BE000BD4604B080BDC04690B585B000AF78600A
:100BF0003C1C0E347B68181CFFF7A6FF031C2380E7
:100C00007B680333181CFFF79FFF031CDB009AB2BD
:100C10003B1C0E331B8813439AB23B1C0E331A80C5
:100C20007B680633181CFFF78FFF031C9B019AB2E9
:100C30003B1C0E331B8813439AB23B1C0E331A80A5
:100C40003B1C0E331B88181CBD4605B090BDC0462A
:100C500080B500AF054B00221A70054B00221A70B8
:100C6000044B00221A70BD4680BDC046E604002039
:100C70001C0500202005002080B582B000AF786000
:100C80007B68DAB2024B1A70BD4602B080BDC04626
:100C90002005002080B582B000AF021CFB1D1A7039
:100CA000034BFA1D12781A70BD4602B080BDC046D3
:100CB000E604002080B500AF0B4B1B78002B10D052
:100CC000094B00221A70094B00221A60074B0022C0
:100CD0005A60064B00229A60044B181C03F01AF865
:100CE00000E0C046BD4680BDE6040020BC040020F4
:100CF00080B582B000AF021CFB1D1A70034BFA1DB9
:100D000012781A70BD4602B080BDC0461C05002096
:100D100080B588B000AFF860B9607A603B60FFF7DB
:100D200097FF624B1B78181C02F0FEF95F4B1B7893
:100D3000181C01F0E1F97B68642B01DD0023B0E0B1
:100D40007B68002B01DC0023ABE0FA239800796874
:100D500008F014FB031C1A1C554B1A6005F0FCFC30
:100D6000021C544B1A60FA68FA239B009A4201DD78
:100D7000002396E0FB68002B01DC002391E04E4B42
:100D8000BA681A604D4B00221A604D4B00221A605F
:100D90004C4B00221A704C4B00221A70494B1B78A6
:100DA000002B03D0494B181C00F0F4FD464B1B7878
:100DB000002B03D0464B181C00F0ECFD02F000FAAB
:100DC0003B1C143300221A603B1C143300229A800F
:100DD0003B1C143300229A713B1C14330122DA713C
:100DE0003B1C1433181C02F01FFC031CFB61FB6945
:100DF000002B09D0374B181C00F0CCFDFB69181CE8
:100E000000F0F2FD00234CE0792003F021FE782071
:100E100003F0A2FDFB689BB2181C03F023FC7B6867
:100E20009BB2181C03F0BEFC3B68002B04D03B684F
:100E30009BB2181C03F084FB274B181C00F0AAFD82
:100E400001F09AF9031CFB61FB69002B09D0234BCD
:100E5000181C00F09FFDFB69181C00F0C5FD002365
:100E60001FE01F4B181CFFF7BFFE031C181C01F0EE
:100E700099F9D02001F094FD022001F079FFFB6880
:100E80009BB2181C01F01AFD012004F055FD031C53
:100E9000002B05D0134B181C00F07CFD002300E054
:100EA0000123181CBD4608B080BDC04620050020A7
:100EB00034050020C8040020A804002014050020E8
:100EC000100500201C050020E60400208CCA00004C
:100ED0009CCA0000ACCA0000C8CA0000DCCA0000FE
:100EE00004000020FCCA000090B587B002AF674B39
:100EF0001B78181C02F018F9644B1B78181C01F0C1
:100F0000FBF863486349644A3B1D3C1C0A34009467
:100F10003C1C0934019401F06DFF031CFB60FB686D
:100F2000002B01D00023ACE005F016FC021C5B4B4B
:100F30001B68D21A5A4B1B689A4200D26EE0594A7B
:100F40003B1D101C191C04F075FF031CFB60FB68A3
:100F5000002B0DD0544B181C00F01CFDFB68181C16
:100F600000F042FD514B181C00F014FD002388E0F6
:100F700005F0F2FB021C494B1A604D4B1B78002B0D
:100F80003CD0484B1B881AB24A4B1B881BB2D31A61
:100F90001A03494B1B881BB2101C191C08F0EEF9F0
:100FA000031C9BB25B429BB29AB2444B5A803D4BAE
:100FB0005B881AB2424B1B881BB2D31A1A03414BEF
:100FC0001B881BB2101C191C08F0D8F9031C9AB21C
:100FD0003A4B1A80334B9B881AB23B4B1B881BB28F
:100FE000D31A1A03394B1B881BB2101C191C08F0AA
:100FF000C5F9031C9AB2314B9A800FE0294B1B882C
:101000009BB25B429BB29AB22C4B5A80254B5A88BA
:101010002A4B1A80234B9A88284B9A801E4B1B68B8
:10102000181C09F099F9021C294B1A601A4B5B68CD
:10103000181C09F091F9021C254B5A60164B9B684D
:10104000181C09F089F9021C214B9A60124BDB68CD
:10105000181C09F081F9021C1D4BDA600D4B1B882E
:101060009BB25B429BB29AB21A4B1A80094B5A88C8
:10107000184B5A80074B9A88164B9A8000F02CF830
:101080000123181CBD4605B090BDC04620050020B8
:1010900038050020E004002088040020C804002057
:1010A00034050020AC04002018CB000034CB000035
:1010B0001C05002002050020CC040020FC040020B8
:1010C000980400209A0400201E0500201A05002024
:1010D000E8040020B4040020F0B595B000AF944BB4
:1010E0001A68944B1A60924B5B68802212065A4031
:1010F000904B5A608F4B00229A608E4A3B1C1033F3
:10110000101C191CFFF718FB8B4B1A68884B9B6847
:10111000101C191C08F026FF031C3B64844B9A68C2
:10112000854B1A603B1C303300221A60834B1B88AE
:101130001BB2181C09F010F9021C3B1C30335A601A
:101140007E4B5B881BB2181C09F006F9021C3B1C85
:1011500030339A60794B9B881BB2181C09F0FCF85D
:10116000021C3B1C3033DA603A1C10323B1C101C52
:10117000191CFFF7FDFB391C30313A1C3B1C203396
:10118000081C111C1A1CFFF71BFC391C10313A1CDF
:1011900020323B1C3033081C111C1A1CFFF710FCBA
:1011A0003B1C30339B68181C0AF036FF051C0E1CD4
:1011B0003B1C30335B68181C0AF02EFF031C0C1C10
:1011C000281C311C1A1C231C05F0CAFC031C0C1C17
:1011D000181C211C0AF074FF031C802212065340C5
:1011E000BB64B86CB96C08F075F9031C002B04D112
:1011F000534B181C00F0CEFB96E0B86C002108F0B1
:101200006FF9031C002B05D0B86C4E4908F0B2F9F9
:10121000031CBB644C4B1B68181C396C08F0AAF902
:10122000031C7B64786C474908F06EF9031C002BA3
:1012300005D0786C434908F095FE031C7B64786CFC
:10124000002108F04DF9031C002B05D0786C3D49B6
:1012500008F090F9031C7B64B86C796C08F082FE8E
:10126000031CFB64F86C394908F058F9031C002B87
:1012700005D0F86C334908F075FE031CFB64F86C6C
:10128000334908F037F9031C002B05D0F86C2D49C1
:1012900008F070F9031CFB642E4B1B68002B2ADD41
:1012A0002C4B1B68181C09F057F8031CF86C191C10
:1012B00008F036FB031C786C191C08F05BF9031C62
:1012C0007B64786C1F4908F01FF9031C002B05D0C4
:1012D000786C1C4908F046FE031C7B64786C002186
:1012E00008F0FEF8031C002B05D0786C154908F0B7
:1012F00041F9031C7B64144B7A6C1A60786C1349B7
:1013000008F002F9031C002B05D0786C0D4908F099
:1013100029FE031C7B64074B7A6C9A60054A0E4BCE
:10132000101C191CFFF708FABD4615B0F0BDC046E9
:101330009C0400200405002014050020FC0400206B
:1013400038CB0000DB0FC94010050020DB0F4940FF
:10135000DB0F49C0A8040020D004002080B582B073
:1013600000AF78601C4B181C00F014FB7B681B68F6
:10137000181C08F0D1FF031C181C00F035FB174B9C
:10138000181C00F007FB7B6804331B68181C08F06E
:10139000C3FF031C181C00F027FB114B181C00F0A6
:1013A000F9FA7B6808331B68181C08F0B5FF031CAA
:1013B000181C00F019FB0B4B181C00F0EBFA7B68B3
:1013C0000C331B68181C08F0A7FF031C181C00F046
:1013D0000BFBBD4602B080BD40CB000044CB0000FB
:1013E0004CCB000054CB000080B582B000AF7860D9
:1013F000144B181C00F0CEFA7B681B68181C00F018
:10140000F3FA114B181C00F0C5FA7B6804331B6813
:10141000181C00F0E9FA0D4B181C00F0BBFA7B68B1
:1014200008331B68181C00F0DFFA094B181C00F089
:10143000B1FA7B680C331B68181C00F0D5FABD4666
:1014400002B080BD40CB000044CB00004CCB00007C
:1014500054CB000080B582B000AF7860114B181CEF
:1014600000F098FA7B681B881BB2181C00F0BCFACD
:101470000D4B181C00F08EFA7B6802331B881BB2E0
:10148000181C00F0B1FA094B181C00F083FA7B68B5
:1014900004331B881BB2181C00F0A6FABD4602B02C
:1014A00080BDC0465CCB00004CCB000054CB00009C
:1014B00080B582B000AF7860154B181C00F06AFA56
:1014C0007B681B68181C08F027FF031C181C00F021
:1014D0008BFA104B181C00F05DFA7B6804331B6814
:1014E000181C08F019FF031C181C00F07DFA0A4BA9
:1014F000181C00F04FFA7B6808331B68181C08F0B2
:101500000BFF031C181C00F06FFABD4602B080BD33
:101510005CCB00004CCB000054CB000080B582B007
:1015200000AF78601D4B181C00F034FA7B681B6814
:10153000181C1B4908F0E6FB031C181C08F0ECFE05
:10154000031C181C00F050FA164B181C00F022FA6D
:101550007B6804331B68181C114908F0D3FB031C7B
:10156000181C08F0D9FE031C181C00F03DFA0E4BA5
:10157000181C00F00FFA7B6808331B68181C084918
:1015800008F0C0FB031C181C08F0C6FE031C181C46
:1015900000F02AFABD4602B080BDC0465CCB000018
:1015A000E02E65424CCB000054CB000080B500AF6C
:1015B0003A4A3B4B0021D150384AA123DB00072196
:1015C000D150364AA223DB000121D150334A802377
:1015D0009B000121D150314A80239B000221D15030
:1015E0002E4A80239B002021D1502C4A80239B002F
:1015F0000821D150294A80239B000421D150274A39
:10160000284B2949D150254AA523DB002749D15031
:10161000224A274B2749D150204AA423DB002649E0
:10162000D1501E4A254B0021D1501C4AA623DB0075
:101630000121D150194A224B0021D150174AA3232E
:10164000DB002049D150154A1F4B0221D150134ACB
:101650001D4BD25803231340022B09D10F4A1B4BB9
:101660001B49D1500D4AA723DB001A49D1500FE086
:101670000A4A154BD25803231340012B08D1074ABD
:10168000124BFF21D150054AA723DB001249D1504C
:10169000032005F091F8BD4680BDC0460010004013
:1016A0000C05000024050000E7C2C3C4C8C7C6C5B6
:1016B0001C050000E7E7E7E7C2C2C2002C050000F6
:1016C000140500000C0C0401340500003C0500006A
:1016D000FFFF0000211001000701000080B582B06B
:1016E00000AF7860C046C046C046C046C046C0464F
:1016F000C046C046C046C046C046C046C046C046BA
:101700007B68013B7B60002BECD1BD4602B080BD05
:1017100080B582B000AF7860A023DB057A68C13263
:10172000FF3292000121D150BD4602B080BDC046BB
:1017300080B582B000AF78600A1CFB1C1A70A02331
:10174000DB05FA1C12789200111C7A68C132FF3254
:101750009200D150BD4602B080BDC04680B500AFFA
:10176000C046094A84235B00D358012BF9D1064AAD
:1017700084235B000021D150034AA323DB00D3580C
:10178000DBB2181CBD4680BD0020004080B582B091
:1017900000AF78600C4A84235B00D358012B0DD135
:1017A000094A84235B000021D150074AA323DB00B0
:1017B000D358DAB27B681A70012300E00023181CAA
:1017C000BD4602B080BDC0460020004080B584B058
:1017D00000AF786039603B1C0F3301221A7013E0B0
:1017E0007B68DB43DB0FDBB27A68013A7A60002B5F
:1017F00005D0FA239B00181CFFF770FF04E03B1C88
:101800000F3300221A7005E00D4A84235B00D35881
:10181000012BE5D17B68002B0BDB094A84235B009D
:101820000021D150064AA323DB00D358DAB23B682B
:101830001A703B1C0F331B78181CBD4604B080BDCA
:101840000020004080B586B000AFF860B9607A60D3
:101850003B1C173300221A70FB68002B06DA3B1C76
:10186000173301221A70FB685B42FB60BB683B6167
:10187000FB68181C796807F0D7FD0B1CDBB230330E
:10188000DAB23B691A703B691B78392B05D93B6981
:101890001B780733DAB23B691A703B6901333B614D
:1018A000F868796807F06AFD031CFB60FB68002B91
:1018B000DED13B1C17331B78002B05D03B692D2252
:1018C0001A703B6901333B613B6900221A70BB68A7
:1018D000181C00F005F8031C181CBD4606B080BD9E
:1018E00080B588B000AF78607B68181C0AF020FFD4
:1018F000031C7B617B69002B01D1002328E07B69FD
:10190000013B3B617B695B10FB603B69BB61002372
:10191000FB6118E0FB697A68D3181B78BB60FB6930
:101920007A68D318BA6979688A1812781A70BB690C
:101930007A68D318BA68D2B21A70FB690133FB61B6
:10194000BB69013BBB61FA69FB689A42E2DB7B68D9
:10195000181CBD4608B080BD80B582B000AF021C27
:10196000FB1D1A70094AFB1D1978094BD150C0465E
:10197000064A8E235B00D358012BF9D1034A8E23EC
:101980005B000021D150BD4602B080BD0020004068
:101990001C05000080B584B000AF78600023FB60B8
:1019A0007A68FB68D2183B1C0B3312781A70FB68FC
:1019B0000133FB600FE03B1C0B331B78181CFFF757
:1019C000CBFF7A68FB68D2183B1C0B3312781A7075
:1019D000FB680133FB603B1C0B331B78002BEAD107
:1019E000BD4604B080BDC04680B588B000AF786009
:1019F0007A683B1C0C33101C191C0A22FFF722FFCB
:101A0000031C181CFFF7C6FFBD4608B080BDC046CA
:101A100080B588B000AF78607A683B1C0C33101C2E
:101A2000191C1022FFF70EFF031C181CFFF7B2FF52
:101A3000BD4608B080BDC04690B585B000AF7860A7
:101A400039607B68BB600023FB601EE0FB689B0085
:101A5000BA68D418FB689B00BA68D3181B68181CB6
:101A60009D21C90507F05CFF031C2360FB689B00F8
:101A7000BA68D3181B68181C00F010F8064B181C25
:101A8000FFF788FFFB680133FB60FA683B689A4206
:101A9000DCDBBD4605B090BD60CB000080B586B0F4
:101AA00000AF78603B1D3B6100237B6145E07B69B3
:101AB0003A69D3181A783B1C0F3312091A707B69E4
:101AC0003A69D31819783B1C0E330F220A401A705A
:101AD0003B1C0F331B78092B05D83B1C0F331B789D
:101AE0003033DBB204E03B1C0F331B783733DBB2FF
:101AF0003A1C0D3213703B1C0E331B78092B05D892
:101B00003B1C0E331B783033DBB204E03B1C0E333E
:101B10001B783733DBB23A1C0C3213703B1C0D338D
:101B20001B78181CFFF718FF3B1C0C331B78181C84
:101B3000FFF712FF7B6901337B617B69032BB6DD05
:101B4000BD4606B080BDC04690B583B000AF041C52
:101B5000081C111C1A1CFB1D1C70BB1D18707B1D62
:101B600019703B1D1A70BB1D1B78181CFFF7D0FDA8
:101B70003B1D1B78181C0021FFF7DAFD204ABB1D16
:101B80001978204BD1501E4A3B1D19781E4BD1505D
:101B90003B1C18331B78002B1AD0FB1D1B78181C1C
:101BA000FFF7B6FD7B1D1B78181C0021FFF7C0FD59
:101BB000134A7B1D1978A223DB00D150104AFB1D6C
:101BC0001978A123DB00D1500D4A104B0121D150CF
:101BD0000B4A0F4B0F49D150094AA023DB000421C7
:101BE000D150074B01229A60054B01221A60044A2A
:101BF00084235B000021D150BD4603B090BDC04698
:101C0000002000400C050000140500006C050000D9
:101C10002405000000E0D70180B582B000AF7860F5
:101C2000C046C046C046C046C046C046C046C04684
:101C3000C046C046C046C046C046C0467B68013B61
:101C40007B60002BECD1BD4602B080BD80B584B076
:101C500000AF7860FB1C1970BB1C1A70334BFB6023
:101C6000FB1C1B78002B01D100235AE0304A7B6813
:101C70001B78191C2F4BD1507B6801337B602C4B98
:101C800001229A60C0462A4A8E235B00D358002B5B
:101C900005D1FB68013BFB60FB68002BF3D1FB68BF
:101CA000002B10D1224A82235B000021D150204B0F
:101CB00001225A61C0461E4A82235B00D358002B82
:101CC000F9D000232DE01A4A8E235B000021D15069
:101CD000FB1CFA1C1278013A1A70FB1C1B78002BB3
:101CE0000AD0134A7B681B78191C124BD1507B68B1
:101CF00001337B60C046C5E7C046BB1C1B78002B88
:101D00000ED00B4A82235B000021D150084B0122E8
:101D10005A61C046064A82235B00D358002BF9D093
:101D20000123181CBD4604B080BDC046102700002A
:101D3000004000401C05000080B584B000AF786012
:101D4000FB1C1970BB1C1A70344BFB60FB1C1B780E
:101D5000002B01D100235DE0FB1C1B78012B04D17B
:101D60002F4A304B3049D15003E02D4A2D4B2F499B
:101D7000D1502B4A2E4B0121D1502E4B01221A60FB
:101D8000C0462C4A84235B00D358002B05D1FB6846
:101D9000013BFB60FB68002BF3D1FB68002B01D1FA
:101DA000002337E0234A84235B000021D150214ADD
:101DB000A323DB00D358DAB27B681A707B68013347
:101DC0007B60FB1CFA1C1278013A1A70FB1C1B7812
:101DD000012B03D1124A134B1349D150FB1C1B7822
:101DE000002B04D0134B01221A62C046C8E7C0463C
:101DF000C046104A82235B00D358002BF9D00D4A0D
:101E000082235B000021D150054AA123DB00012180
:101E1000D1500123181CBD4604B080BD102700001E
:101E200000F0014014050000144000401C40004038
:101E3000040500000040004080B586B000AF494A6C
:101E4000A023DB00D358FB60464AA023DB0000211F
:101E5000D150A023DA05EE23DB00D358BB60A023CA
:101E6000DA05EE23DB004049D150A023DA05EC234C
:101E7000DB00D3587B60A023DA05EC23DB003A4972
:101E8000D150A023DA05A123DB0080214904D150E1
:101E9000A023DA05A123DB0080214905D1500420CD
:101EA000FFF7BAFEA023DA05A223DB00D3581A0EEF
:101EB000012313400DD0A023DA05A223DB00D35861
:101EC0001A0F0123134004D03B1C173301221A7050
:101ED00030E03B1C173300221A7012233B6120E0D4
:101EE000A023DA05214B80214905D1500420FFF7BA
:101EF00093FEA023DA05A123DB0080214905D15000
:101F00000420FFF789FEA023DA05A223DB00D358C3
:101F10001A0E0123134004D03B1C173301221A7000
:101F200008E03B695A1E9341DBB23A69013A3A61D3
:101F3000002BD5D1A023DA05EE23DB00B968D15000
:101F4000A023DA05EC23DB007968D150054AA023F1
:101F5000DB00F968D1503B1C17331B78181CBD46B9
:101F600006B080BD004000400D0600000C050000DA
:101F700080B500AFA023DA05EE23DB001C49D15069
:101F8000A023DA05EC23DB001949D150194A842338
:101F90005B000021D150174A8E235B000021D150F5
:101FA000144AA123DB001C21D150124A124B1821E4
:101FB000D150104A114BCD21C904D150104AA2234F
:101FC000DB001049D1500E4A0F4B1049D1500C4A3A
:101FD000A123DB000121D150064AA023DB0005210B
:101FE000D150FFF729FF031C181CBD4680BDC04619
:101FF0000C060000004000400C0500002405000015
:1020000000F0014038410040140500001C40004031
:1020100090B585B000AF3960111C1A1CFB1D1870FB
:10202000BB1D19707B1D1A703B1C0F3301221A70E7
:102030002D4A2E4BD2580223134005D12A4A2B4B4E
:10204000D2580423134013D0274A284B0021D150E3
:10205000274B181CFFF79EFC234A244BD358181C0F
:10206000FFF7D6FC234B181CFFF794FC002336E047
:10207000BB1D1B78002B2FD0FFF7DEFE031C002BAF
:102080002AD0194AFB1D1B785B08DBB2191CB1234F
:10209000DB00D150FB1D1A78012313400ED03C1CED
:1020A0000F343968BB1D1A787B1D1B78081C111C66
:1020B0001A1CFFF741FE031C23700DE03C1C0F347B
:1020C0003968BB1D1A787B1D1B78081C111C1A1C53
:1020D000FFF7BCFD031C23703B1C0F331B78181C3F
:1020E000BD4605B090BDC04600400040C40400009D
:1020F00064CB0000ACCB000080B582B000AF78604C
:102100007B68002B02DB7B68012B02DD01235B4235
:1021100009E0074B7A681A607B681A01054BD218F0
:10212000054B1A600023181CBD4602B080BDC04696
:102130007C040020440500204005002080B500AF4D
:102140000C4B1B6800221A600A4B1B6800225A6065
:10215000084B1B6800221A81064B1B6800225A811B
:10216000044B1B6800229A81024B1B6800229A7361
:10217000BD4680BD4005002080B500AF064B1B88E2
:102180000649074A081C111C1A1CC82303F008FB47
:10219000031C181CBD4680BDA6D70000F60B00002E
:1021A000B0CB000080B588B000AF021CBB1D1A8008
:1021B0003A1C1432874B111C1A1C0323081C111CD7
:1021C0001A1C0AF087F93A1C1032834B111C1A1C96
:1021D0000323081C111C1A1C0AF07CF93A1C0C324F
:1021E0007E4B111C1A1C0323081C111C1A1C0AF01C
:1021F00071F93A1C08327A4B111C1A1C0323081C73
:10220000111C1A1C0AF066F9BB1D1A88032313401F
:102210003A1C1432D25C3B1C1C331A70BB1D1B8849
:10222000DB089BB21A1C032313403A1C1432D25C05
:102230003B1C1C335A70BB1D1B889B099BB21A1C8C
:10224000032313403A1C1432D25C3B1C1C339A709B
:10225000BB1D1A88032313403A1C1032D25C3B1C6E
:1022600018331A70BB1D1B88DB089BB21A1C032392
:1022700013403A1C1032D25C3B1C18335A70BB1D01
:102280001B889B099BB21A1C032313403A1C103273
:10229000D25C3B1C18339A70524A3B1C1C33101CF6
:1022A00003211A1C03F0A6F9031C002B02D0012302
:1022B0005B428AE04C4A3B1C1833101C03211A1C59
:1022C00003F098F9031C002B02D001235B427CE051
:1022D0003B1C1C333A1C0C321188198092789A707E
:1022E0003A1C18323B1C0833111C1A1C0323081C0F
:1022F000111C1A1C0AF0EEF8BB1D1A8804231340A7
:1023000011D03B1C1C331B7801221343DAB23B1C57
:102310001C331A703B1C18331B7801221343DAB2AA
:102320003B1C18331A70BB1D1A882023134011D090
:102330003B1C1C335B7801221343DAB23B1C1C3379
:102340005A703B1C18335B7801221343DAB23B1CF2
:1023500018335A70BB1D1A8880235B00134011D0BC
:102360003B1C1C339B7801221343DAB23B1C1C3309
:102370009A703B1C18339B7801221343DAB23B1C42
:1023800018339A708823DA003B1C1C33101C03217D
:102390001A1C03F02FF9031C002B02D001235B420F
:1023A00013E0124A3B1C1833101C03211A1C03F0C3
:1023B00021F9031C002B02D001235B4205E00C4BEA
:1023C0001B68BA1D12881A810023181CBD4608B06C
:1023D00080BDC046A8D70000ACD70000B0D7000031
:1023E000B4D70000260400002A04000031040000D5
:1023F00040050020F0B591B000AFF862984B1B6823
:102400001B891A1C032313409A00FB6A9B181A6845
:102410003B1C34331A60924B1B681B891A1C042323
:10242000134006D03B1C34331B685A423B1C3433E8
:102430001A608B4B1B681B89DB089BB21A1C032399
:1024400013409A00FB6A9B181A683B1C34335A608D
:10245000834B1B681B891A1C2023134006D03B1C8E
:1024600034335B685A423B1C34335A607C4B1B68E4
:102470001B899B099BB21A1C032313409A00FB6A19
:102480009B181A683B1C34339A60754B1B681B8978
:102490001A1C80235B00134006D03B1C34339B681E
:1024A0005A423B1C34339A603B1C34331B683B62FA
:1024B000DB177B62386A796A684B674A07F038F83D
:1024C000031C0C1CA200990FB961B9691143B961D1
:1024D000A217FA61BA693B1C34331A603B1C3433CF
:1024E0005B68191C3961DB177B61386979695B4B63
:1024F000594A07F01DF8031C0C1CA200990FB96083
:10250000B9681143B960A217FA60BA683B1C34334A
:102510005A603B1C34339B68191C3960DB177B60A5
:10252000386879684D4B4C4A07F002F8031C0C1CC4
:10253000A2009D0F1543A6172A1C3B1C34339A603A
:102540003B1C34331B681B16DAB23B1C30331A7049
:102550003B1C34331B681B14DAB23B1C30335A70FB
:102560003B1C34331B681B12DAB23B1C30339A70AD
:102570003B1C34331B68DAB23B1C3033DA70F42373
:102580009A003B1C3033101C04211A1C03F032F853
:10259000031C002B02D001235B4256E03B1C34336A
:1025A0005B681B16DAB23B1C30331A703B1C3433A9
:1025B0005B681B14DAB23B1C30335A703B1C34335B
:1025C0005B681B12DAB23B1C30339A703B1C34330D
:1025D0005B68DAB23B1C3033DA70F5239A003B1C9F
:1025E0003033101C04211A1C03F004F8031C002BC8
:1025F00002D001235B4228E03B1C34339B681B164E
:10260000DAB23B1C30331A703B1C34339B681B140A
:10261000DAB23B1C30335A703B1C34339B681B12BC
:10262000DAB23B1C30339A703B1C34339B68DAB20D
:102630003B1C3033DA70F6239A003B1C3033101CFD
:1026400004211A1C02F0D6FF031C181CBD4611B051
:10265000F0BDC046C046C04609E3CA020000000003
:1026600040050020B0B598B000AF78633B1C3E3306
:10267000181C02F025F93B1C3E331B881C1C002350
:102680001D1C620CEB031343FB65E303BB650120D8
:1026900004F092F8884B1B681B891A1C0323134013
:1026A0009A007B6B9B181A683B1C4C331A60824B58
:1026B0001B681B891A1C0423134006D03B1C4C3397
:1026C0001B685A423B1C4C331A607B4B1B681B89AE
:1026D000DB089BB21A1C032313409A007B6B9B18E8
:1026E0001A683B1C4C335A60734B1B681B891A1CBD
:1026F0002023134006D03B1C4C335B685A423B1CE2
:102700004C335A606C4B1B681B899B099BB21A1C8B
:10271000032313409A007B6B9B181A683B1C4C33B5
:102720009A60654B1B681B891A1C80235B00134051
:1027300006D03B1C4C339B685A423B1C4C339A607E
:102740003B1C4C331B68BB62DB17FB62B86AF96A3F
:10275000BA6DFB6D06F0ECFE031C0C1CA200990F79
:102760003962396A11433962A2177A623A6A3B1CAC
:102770004C331A603B1C4C335B68191CB961DB1786
:10278000FB61B869F969BA6DFB6D06F0D1FE031CF7
:102790000C1CA200990F3961396911433961A217E4
:1027A0007A613A693B1C4C335A603B1C4C339B6842
:1027B000191CB960DB17FB60B868F968BA6DFB6D6E
:1027C00006F0B6FE031C0C1CA200990F3960396894
:1027D00011433960A2177A603A683B1C4C339A6007
:1027E0003B1C4C331B681B16DAB23B1C40331A707F
:1027F0003B1C4C331B681B14DAB23B1C40335A7031
:102800003B1C4C331B681B12DAB23B1C40339A70E2
:102810003B1C4C331B68DAB23B1C4033DA703B1C68
:102820004C335B681B16DAB23B1C40331A713B1CFD
:102830004C335B681B14DAB23B1C40335A713B1CAF
:102840004C335B681B12DAB23B1C40339A713B1C61
:102850004C335B68DAB23B1C4033DA713B1C4C33BF
:102860009B681B16DAB23B1C40331A723B1C4C337C
:102870009B681B14DAB23B1C40335A723B1C4C332E
:102880009B681B12DAB23B1C40339A723B1C4C33E0
:102890009B68DAB23B1C4033DA72A5239A003B1CDA
:1028A0004033101C0C211A1C02F0A4FE031C181C3F
:1028B000BD4618B0B0BDC0464005002080B588B008
:1028C00000AF021CBB1D1A803A1C1032284B111C91
:1028D0001A1C0C23081C111C1A1C09F0FBFDBB1D43
:1028E0001B88C82B02D901235B423DE0BB1D1B881E
:1028F000C820191C06F042FD031C9AB23B1C1E3373
:10290000013A1A803B1C1E331B881B0A9BB2DAB2A9
:102910003B1C08331A703B1C1E331B88DAB23B1C6D
:1029200008335A70134A3B1C0833101C02211A1C2E
:1029300002F060FE031C002B02D001235B4213E077
:102940000D4A3B1C1033101C0C211A1C02F052FEC5
:10295000031C002B02D001235B4205E0074B1B68E0
:10296000BA1D12889A810023181CBD4608B080BD8C
:10297000B8D7000016020000C10A00004005002080
:1029800080B582B000AF7860044B1B689A897B6881
:102990001A800023181CBD4602B080BD40050020EF
:1029A00080B586B000AF021CBB1D1A803B1C0C33E7
:1029B00002221A703B1C0C33CA225A703B1C0C3387
:1029C000E3229A703B1C0C330922DA703B1C0C3357
:1029D000682004211A1C02F00DFE3B1C0C33A322BC
:1029E0001A70BB1D1A88402313400CD03B1C0C33BB
:1029F000C0225A703B1C0C33C8229A703B1C0C330B
:102A0000C222DA700BE03B1C0C33A3225A703B1C31
:102A10000C33A3229A703B1C0C33A322DA70BB1D2B
:102A20001A88C0235B0013400CD03B1C0C33C4221B
:102A30001A713B1C0C33CC225A713B1C0C33C6223E
:102A40009A710BE03B1C0C33A3221A713B1C0C3314
:102A5000A3225A713B1C0C33A3229A713B1C0C33EA
:102A6000A322DA713B1C0C33A3221A723B1C0C33D9
:102A7000A3225A725F4A3B1C0C33101C0A211A1CF9
:102A800002F0B8FDBB1D1A880323134004D03B1C81
:102A90000C3320221A7003E03B1C0C33D8221A702E
:102AA000554A3B1C0C33101C01211A1C02F0A2FDDC
:102AB000BB1D1A882023134003D0012000F0B2F878
:102AC00002E0002000F0AEF8BB1D1A88C0235B00B6
:102AD00013402ED0BB1D1A8880235B00134010D0FA
:102AE0003B1C0C33B2221A703B1C0C338B225A70E5
:102AF0003B1C0C33B6229A703B1C0C339B22DA70C1
:102B00000FE03B1C0C33B0221A703B1C0C338022AC
:102B10005A703B1C0C33B4229A703B1C0C3390222D
:102B2000DA70364A3B1C0C33101C04211A1C02F0CC
:102B300061FDBB1D1A880423134003D0012000F05F
:102B4000AFF802E0002000F0ABF8BB1D1A8810239C
:102B5000134003D0012000F0D7F802E0002000F07D
:102B6000D3F8274B1B68BA1D128808210A4392B27A
:102B70005A8101F00DFA224B1B6800229A73BB1D8B
:102B80001A884023134007D01D4B1A681C4B1B6842
:102B90009B7B0633DBB29373BB1D1A88C0235B009B
:102BA000134007D0164B1A68154B1B689B7B0633E6
:102BB000DBB29373BB1D1A881423134007D0104B4C
:102BC0001A680F4B1B689B7B1033DBB29373BB1DE2
:102BD0001A880323134007D0094B1A68084B1B6857
:102BE0009B7B0433DBB293730023181CBD4606B0F5
:102BF00080BDC046A70A0000B60A0000A20A000075
:102C00004005002080B582B000AF7860044B1B689F
:102C10005A897B681A800023181CBD4602B080BD0B
:102C20004005002080B588B000AF021CFB1D1A7063
:102C3000FB1D1B78002B15D03A1C1432164B111CAF
:102C40001A1C0923081C111C1A1C09F043FC9723A9
:102C5000DA003B1C1433101C09211A1C02F0CAFCB8
:102C6000031C14E03A1C08320C4B111C1A1C0923DB
:102C7000081C111C1A1C09F02DFC9723DA003B1CC0
:102C80000833101C09211A1C02F0B4FC031C181C88
:102C9000BD4608B080BDC046C4D70000D0D70000F4
:102CA00080B584B000AF021CFB1D1A70FB1D1B78A1
:102CB000002B10D03B1C0C33C0221A703B1C0C3371
:102CC000C2225A703B1C0C33C4229A703B1C0C333A
:102CD000C622DA7006E03B1C0C33181C8B21042240
:102CE00009F09AFC074A3B1C0C33101C04211A1CE7
:102CF00002F080FC01F04CF9031C181CBD4604B026
:102D000080BDC046980A000080B584B000AF021CA8
:102D1000FB1D1A70FB1D1B78002B10D03B1C0C33C5
:102D200020221A703B1C0C3328225A703B1C0C3397
:102D300030229A703B1C0C333822DA7006E03B1CC0
:102D40000C33181CA321042209F066FC074A3B1C23
:102D50000C33101C04211A1C02F04CFC01F018F971
:102D6000031C181CBD4604B080BDC0469E0A00006E
:102D700080B588B000AF021CFB1D1A703A1C1432DB
:102D8000194B111C1A1C0B23081C111C1A1C09F0CE
:102D9000A1FB3A1C0832154B111C1A1C0B23081CF2
:102DA000111C1A1C09F096FBFB1D1B78012B0BD084
:102DB000022B13D10E4A3B1C1433101C0B211A1C7E
:102DC00002F018FC031C0BE0094A3B1C0833101CE2
:102DD0000B211A1C02F00EFC031C01E001235B42D4
:102DE000181CBD4608B080BDDCD70000E8D7000045
:102DF000820A000080B594B000AFF860B9607A60D4
:102E00003B603B1C4F3300221A70BB6D00221A80BE
:102E1000C14B1B689B7B191C3A1C2432FB6D081CA0
:102E2000111C1A1C02F062F9031CBB64BB6C002B62
:102E300002D001235B426BE1B74B1B685B891A1C14
:102E40001423134000D1B9E03B1C24331B781A062D
:102E50003B1C24335B781B041A433B1C24339B78B4
:102E60001B021A433B1C2433DB781A437B681A602D
:102E70007B6804333A1C2432127911063A1C24323E
:102E80005279120411433A1C2432927912021143EE
:102E90003A1C2432D2790A431A607B6808333A1C00
:102EA0002432127A11063A1C2432527A1204114347
:102EB0003A1C2432927A120211433A1C2432D27AFA
:102EC0000A431A607B680C333A1C2432127B1106C9
:102ED0003A1C2432527B120411433A1C2432927B56
:102EE000120211433A1C2432D27B0A431A603B1C63
:102EF0004F333A1C4F32127810321A707B681B68BD
:102F00001A143B1C14331A607B6804331B681A14B0
:102F10003B1C14335A607B6808331B681A143B1C33
:102F200014339A607B680C331B681A143B1C1433EF
:102F3000DA603B1C14331A683B1C14331B685A4379
:102F40003B1C143359683B1C14335B684B43D21849
:102F50003B1C143399683B1C14339B684B43D218B9
:102F60003B1C1433D9683B1C1433DB684B43D31828
:102F70007B647A6C694B9A4204DD7A6C88235B052A
:102F80009A4213DD01F004F8BB6D00221A80644BF5
:102F9000181CFEF7FFFC7B6C181CFEF725FD614B2F
:102FA000181CFEF7F7FC02235B42B1E0BB6D1B88E7
:102FB0008022520013439AB2BB6D1A80564B1B6895
:102FC0005B891A1C402313404AD03B1C4F331B78AB
:102FD0003A1C2432D35C1B029AB23B1C4F331B7841
:102FE0000133391C2431CB5C13439AB2BB681A807D
:102FF000BB6802333A1C4F3212780232391C24313A
:103000008A5C120291B23A1C4F3212780332381C99
:103010002430825C0A4392B21A80BB6804333A1CA3
:103020004F3212780432391C24318A5C120291B278
:103030003A1C4F3212780532381C2430825C0A4325
:1030400092B21A803B1C4F333A1C4F321278063230
:103050001A70BB6D1B88082213439AB2BB6D1A808D
:103060002D4B1B685B891A1CC0235B0013404AD0A0
:103070003B1C4F331B783A1C2432D35C1B029AB2A0
:103080003B1C4F331B780133391C2431CB5C134379
:103090009AB2FB681A80FB6802333A1C4F321278EE
:1030A0000232391C24318A5C120291B23A1C4F322E
:1030B00012780332381C2430825C0A4392B21A80A0
:1030C000FB6804333A1C4F3212780432391C243125
:1030D0008A5C120291B23A1C4F3212780532381CC7
:1030E0002430825C0A4392B21A803B1C4F333A1C54
:1030F0004F32127806321A70BB6D1B887022134350
:103100009AB2BB6D1A803B68181C03F02FFB00239A
:10311000181CBD4614B080BD40050020FFFFFF0E07
:10312000F4D7000030D8000080B582B000AF7860DE
:103130007B68002B02DB7B68012B02DD01235B42F5
:1031400028E0164B7A681A607B682B225A43144B8E
:10315000D218144B1A607A68131CDB009B1A5B00B0
:103160001A1C114BD218114B1A607A68131C9B0061
:103170009B18DB001A1C0E4BD2180E4B1A607A6893
:10318000131CDB009B1ADB001A1C0B4BD2180B4BD9
:103190001A600023181CBD4602B080BD80040020C8
:1031A000F80500206405002068050020A006002026
:1031B00050060020F405002084050020A40600200D
:1031C00080B500AF904B1B6875221A708E4B1B6840
:1031D00019225A708C4B1B681A229A708A4B1B68F2
:1031E0000C22DA70884B1B686A221A71864B1B68A6
:1031F00023225A71844B1B681B229A71824B1B68D5
:103200001C22DA71804B1B681F229A727E4B1B684E
:103210002022DA727C4B1B6872221A737A4B1B686D
:1032200073225A73784B1B6874229A73764B1B680F
:103230004322DA73744B1B683B221A74724B1B686F
:1032400041225A74704B1B6838229A746E4B1B686B
:103250003922DA746C4B1B683A221A756A4B1B6868
:103260006B229A75684B1B686C22DA75664B1B687B
:1032700037221A76644B1B686F225A76624B1B68A2
:1032800006229A76604B1B682422DA765E4B1B6816
:103290006D221A775C4B1B686E225A775A4B1B685B
:1032A00070229A77584B1A6829234921D154564BDA
:1032B0001A682A230121D154534B1B682522DA773F
:1032C000514B1A6820232621D1544F4B1A682123D1
:1032D0002721D1544C4B1A6822232821D1544A4B20
:1032E0001A6823232921D154474B1A6824232A2101
:1032F000D154454B1A6825233421D154424B1A68C6
:1033000026236321D154404B1A6827236421D154CA
:103310003D4B1A6828236721D1543C4B1B68002B76
:1033200002D0012B05D009E0394B1B68D0221A705E
:1033300004E0374B1B68D2221A70C046344B1B681E
:103340008022D2005A80324B1B6876221A71304B91
:103350001B68AA225200DA802D4B1B682D4A1A8165
:103360002B4B1B68802252005A81294B1B682A4A2A
:103370009A812A4B1B6883221A60284B1B68802283
:1033800012015A60254B1B6800221A72234B1B68DE
:1033900001225A72214B1B6800229A721F4B1B6834
:1033A0001822DA721D4B1B6832229A811B4B1B6854
:1033B00005229A73194B1B68194A1A61174B1B682F
:1033C000184A5A61154B1B68174A9A61134B1B68C0
:1033D000164ADA61114B1B68154A1A620F4B1B68BB
:1033E000114A5A62134B1B68074A12681A60114B44
:1033F0001B68074A12685A600E4B1B68074A12681E
:103400005A63BD4680BDC04664050020800400208C
:10341000A0060020F7FDFFFF66260000F40500204F
:10342000000020410000D242295C0F3E9A99993E4B
:103430003333733FA406002080B584B000AF021C74
:10344000FB1D1A703A4B1A682423D35C002B2BD037
:10345000FB1D1B78002B04D03B1C0F3302221A707B
:1034600003E03B1C0F3300221A70314B1B685B6872
:1034700019782F4B1B681B689A7C3B1C0F33081C68
:10348000111C012202F04AFF031C01225340DBB24F
:10349000002B02D001235B4245E0254B1B683A1C00
:1034A0000F3212785A743DE0214B1B689B7A002B37
:1034B00002D101235B4236E0FB1D1B78002B06D0B6
:1034C0001B4B1B685B7C002B01D000232BE0FB1DFA
:1034D0001B78002B04D03B1C0F3301221A7003E031
:1034E0003B1C0F3300221A70114B1B685B68197864
:1034F0000F4B1B681B689A7C3B1C0F33081C111C6C
:10350000012202F00BFF031C01225340DBB2002B0F
:1035100002D001235B4206E0054B1B683A1C0F32C8
:1035200012785A740023181CBD4604B080BDC046F2
:10353000A406002080B582B000AFFB1D00221A70E7
:1035400027E01A4B1B681B689B7BFA1D12789A4276
:1035500019D0164B1B681B685B7EFA1D12789A42C5
:1035600011D0124B1B685B681978FB1D1A78BB1DC4
:10357000081C111C012202F079FF031C002B03D14F
:1035800001235B420EE0C046FB1DFA1D127801329A
:103590001A70064B1B685B681B79FA1D12789A42F9
:1035A000CFD30023181CBD4602B080BDA406002066
:1035B00080B582B000AF021C3960FB1D1A70194B38
:1035C0001B681B689B7BFA1D12789A4207D0154B2B
:1035D0001B681B685B7EFA1D12789A4202D1012398
:1035E0005B421AE00F4B1B685B681B79FA1D12786F
:1035F0009A4202D301235B420FE00A4B1B685B68CF
:103600001978FB1D1A783B68081C111C012202F076
:103610002DFF031C5A425341DBB2181CBD4602B0B9
:1036200080BDC046A406002080B586B000AF78609B
:10363000CB4B1B685B681978C94B1B681B681A78F1
:103640003B1C0F33081C111C012202F00FFF3B1C16
:103650000F331B78682B06D0C24B181CFEF79AF963
:103660000B235B4277E13B1C083380221A70BC4B72
:103670001B685B681978BA4B1B681B689A7D3B1CFA
:103680000833081C111C012202F048FE031C012211
:103690005340DBB2002B02D001235B425BE164208C
:1036A00003F08AF83B1C083300221A70AC4B1B68ED
:1036B0005B681978AA4B1B681B689A7D3B1C083312
:1036C000081C111C012202F029FE031C0122534098
:1036D000DBB2002B02D002235B423CE1A04B1B6813
:1036E0005B6819789E4B1B681B689A7E3B1C0833ED
:1036F000081C111C062202F0B9FE031C002B02D18B
:1037000003235B4227E13B1C08335B791A1C01232E
:1037100013409B00DAB23B1C0833DB78191C0123F1
:103720000B405B00DBB21343DAB23B1C08335B781F
:10373000DBB2191C01230B40DBB21343DAB23B1C92
:1037400017331A703B1C17331B78002B24D03B1CFB
:1037500017331B78012B04D1814B1B680122DA74CB
:1037600055E03B1C17331B78022B04D17C4B1B68A4
:103770000022DA744BE07C4B181CFEF70BF93B1C63
:1037800017331B78181CFEF72FF9784B181CFEF71F
:1037900001F904235B42DEE0714B1B685B6819781A
:1037A0006F4B1B681B68DA783B1C0833081C111C24
:1037B000012202F05BFE031C002B02D105235B42B9
:1037C000C9E03B1C083319783B1C17330F220A4011
:1037D0001A703B1C17331B78002B06D1644B181C46
:1037E000FEF7D8F806235B42B5E03B1C17331B7885
:1037F000042B08D15F4B181CFEF7CCF8584B1B6804
:103800000122DA7403E0564B1B680022DA74544B31
:103810001B68FF229A72524B1B68FF221A72504B90
:103820001B68FF225A724E4B1B68FF22DA724C4B08
:103830001B6801225242DA81494B1B68FF221A742D
:10384000474B1B68FF229A74454B1B68012252426A
:103850001A85434B1B6801221A73414B1A682223B5
:103860000121D1543E4B1A6823230021D1543C4BF3
:103870001B6800225A753A4B1B6800221A75384B98
:103880001B681633181C00210C2208F0C5FE344BAF
:103890001A6824230021D154314B1A6825230021B2
:1038A000D1542F4B1B680022DA84FA23DB00181C4A
:1038B00000F006FD031C002B02D001235B424AE00E
:1038C000022000F0A3FD031C002B02D001235B4269
:1038D00041E02A2000F034FE031C002B02D001231B
:1038E0005B4238E0322000F0BDFE031C002B02D00A
:1038F00001235B422FE0002001F02EF8031C002B77
:1039000002D001235B4226E07B68002B03D01A4BD8
:10391000181CFEF73FF802F087F8031C3B613B6977
:10392000002B0BD0154B181CFEF734F83B69181C04
:10393000FEF75AF80D4B181CFEF72CF80A2000F081
:1039400031FF031C002B02D001235B4203E0002067
:1039500001F07EF80023181CBD4606B080BDC046AD
:10396000A406002034D8000068D800008CD80000DD
:1039700090D80000DCD80000FCD8000014D900006A
:1039800080B584B000AF021CFB1D1A70FB1D1B78B4
:10399000282B02D901235B4292E0FB1D1B78002BF0
:1039A00028D1002001F0C6FD3B1C0C3300221A7008
:1039B0003B1C0C3307225A70434B1B685B68197819
:1039C000414B1B681B689A7D3B1C0C33081C111C67
:1039D000022202F0A3FC031C01225340DBB2002BA5
:1039E00002D001235B426BE0374B1B6800221A7543
:1039F000002365E0012001F09DFD3B1C0C332022DB
:103A00001A70FB1D1B78012B07D13B1C0C330022C5
:103A10005A70052000F094FD1EE0FB1D1B78052B5D
:103A200007D83B1C0C3301225A70052000F088FD9A
:103A300012E0FB1D1B78142B07D83B1C0C33022211
:103A40005A700A2000F07CFD06E03B1C0C33032278
:103A50005A70142000F074FD3B1C0C335B789B0102
:103A6000DBB207221343DBB2DAB23B1C0C335A70D1
:103A7000154B1B685B681978134B1B681B689A7D94
:103A80003B1C0C33081C111C022202F047FC031CD7
:103A900001225340DBB2002B02D001235B420FE036
:103AA000094B1B6808229A72074B1B6800221A7385
:103AB000054B1B6801221A75002000F04DFF002302
:103AC000181CBD4604B080BDA406002080B584B09B
:103AD00000AF78603960284B1B689B7A1A1C7023F2
:103AE000134002D101235B4242E0234B1B685B6819
:103AF0001978214B1B681B68DA7B3B1C0833081CB8
:103B0000111C062202F0B2FC031C002B02D101237F
:103B10005B422DE03B1C08331B781B029AB23B1C16
:103B200008335B7813439AB27B681A807B68023350
:103B30003A1C08329278120291B23A1C0832D278BA
:103B40000A4392B21A807B6804333A1C0832127915
:103B5000120291B23A1C083252790A4392B21A8088
:103B60003B68002B03D03B68181C02F0FFFD0023CC
:103B7000181CBD4604B080BDA406002080B584B0EA
:103B800000AF78603960284B1B689B7A1A1C0823A9
:103B9000134002D101235B4242E0234B1B685B6868
:103BA0001978214B1B681B681A7C3B1C0833081CC6
:103BB000111C062202F05AFC031C002B02D1012327
:103BC0005B422DE03B1C08331B781B029AB23B1C66
:103BD00008335B7813439AB27B681A807B680233A0
:103BE0003A1C08329278120291B23A1C0832D2780A
:103BF0000A4392B21A807B6804333A1C0832127965
:103C0000120291B23A1C083252790A4392B21A80D7
:103C10003B68002B03D03B68181C02F0A7FD002373
:103C2000181CBD4604B080BDA406002090B585B028
:103C300000AF78603960354B1B689B7A002B02D14E
:103C400001235B425EE0314B1B685B6819782F4BA8
:103C50001B681B685A7C3B1C0C33081C111C02227D
:103C600002F004FC031C002B02D101235B4249E05B
:103C70003B1C0C331B781B0299B23B1C0C335B784A
:103C80001A1C3B1C0E330A431A803B68002B03D0DE
:103C90003B68181C02F06AFD3B1C0E3300229B5E41
:103CA000181C06F059FB041C184B1B685B681B8929
:103CB0001BB2181C06F050FB031C201C191C06F03C
:103CC00051F9031C1C1C114B1B685B68DB88181C1A
:103CD00006F042FB031C201C191C05F021FE031CEE
:103CE000181C0B4905F046FC031C181C8F21C90544
:103CF00006F008F8031C181C06F00EFB021C7B687B
:103D00001A600023181CBD4605B090BDA406002013
:103D100000000C4280B58AB000AF78607B68002B51
:103D200002D101235B422CE17B681B68002B0BD185
:103D30007B6804331B68002B06D17B6808331B6843
:103D4000002B01D100231CE1904B1B685B681A78A3
:103D50003B1C2033101C0321032202F087FB031CB1
:103D6000002B02D101235B420BE13B1C20331B786B
:103D70001B09DBB208339BB29BB21A1C0F23134002
:103D80009AB23B1C08331A803B1C20335B781B091A
:103D9000DBB208339BB29BB21A1C0F2313409AB2BA
:103DA0003B1C08335A803B1C20339B781B09DBB239
:103DB00008339BB29BB21A1C0F2313409AB23B1CD0
:103DC00008339A807B681B685A003B1C08331B88A9
:103DD0001BB24033101C191C05F0D0FA031C9AB218
:103DE0003B1C18331A807B6804331B685A003B1C49
:103DF00008335B881BB24033101C191C05F0BEFA57
:103E0000031C9AB23B1C18335A807B6808331B682A
:103E10005A003B1C08339B881BB24033101C191CF2
:103E200005F0ACFA031C9AB23B1C18339A80574B2E
:103E30001B685B681A783B1C2033101C0621062285
:103E400002F014FB031C002B02D101235B4298E01B
:103E50003B1C20331B781B029AB23B1C20335B783F
:103E600013439AB23B1C10331A803B1C20339B78BF
:103E70001B029AB23B1C2033DB7813439AB23B1CE3
:103E800010335A803B1C20331B791B029AB23B1C17
:103E900020335B7913439AB23B1C10339A803B1C4E
:103EA00018331B889AB23B1C10331B889BB2D31863
:103EB0009BB29AB23B1C18331A803B1C18335B88A8
:103EC0009AB23B1C10335B889BB2D3189BB29AB258
:103ED0003B1C18335A803B1C18339B889AB23B1CFE
:103EE00010339B889BB2D3189BB29AB23B1C1833F9
:103EF0009A803B1C18331B881BB21B129BB2DAB290
:103F00003B1C20331A703B1C18331B88DAB23B1C55
:103F100020335A703B1C18335B881BB21B129BB2B8
:103F2000DAB23B1C20339A703B1C18335B88DAB240
:103F30003B1C2033DA703B1C18339B881BB21B12CE
:103F40009BB2DAB23B1C20331A713B1C18339B889E
:103F5000DAB23B1C20335A710C4B1B685B681A7831
:103F60003B1C2033101C0621062202F0D7F9031C4B
:103F700001225340DBB2002B02D001235B4200E060
:103F80000023181CBD460AB080BDC046A406002010
:103F900080B582B000AFB14B1B689B7A002B02D179
:103FA00001235B4255E1FB1D00221A70AB4B1B68DD
:103FB0005B681978A94B1B681B689A7CFB1D081C61
:103FC000111C012202F0AAF9031C01225340DBB2AA
:103FD000002B02D001235B423BE1A04B1B685B68D6
:103FE00019789E4B1B681B685A79FB1D081C111C15
:103FF000012202F093F9031C01225340DBB2002B93
:1040000002D001235B4224E1944B1B685B68197862
:10401000924B1B681B681A79FB1D081C111C01229E
:1040200002F07CF9031C01225340DBB2002B02D0CA
:1040300001235B420DE1894B1A682423D35C002BDA
:1040400000D182E0FB1D0C221A70844B1B685B6858
:104050001978824B1B681B681A79FB1D081C111C00
:10406000012202F05BF9031C01225340DBB2002B5A
:1040700002D001235B42ECE0322002F09DFBFB1DED
:10408000C0221A70754B1B689B7A1A1C01231340BF
:1040900006D0FB1D1B7820221343DAB2FB1D1A70D9
:1040A0006E4B1B685B6819786C4B1B681B681A7930
:1040B000FB1D081C111C012202F030F9031C012217
:1040C0005340DBB2002B02D001235B42C1E0634BC3
:1040D0001B685B7C002B03D0FB1D02221A7002E0E0
:1040E000FB1D00221A705D4B1B685B6819785B4BE7
:1040F0001B681B689A7CFB1D081C111C012202F026
:104100000DF9031C01225340DBB2002B02D0012326
:104110005B429EE0FB1D00221A70504B1B685B68DF
:1041200019784E4B1B681B685A79FB1D081C111C23
:10413000012202F0F3F8031C01225340DBB2002BF2
:1041400000D185E001235B4283E0FB1D04221A704D
:10415000424B1B685B681978404B1B681B681A79D7
:10416000FB1D081C111C012202F0D8F8031C0122BF
:104170005340DBB2002B02D001235B4269E0374B96
:104180001B689B7C002B06D1344B1B689B7A1A1C46
:104190000123134003D1FB1D40221A7002E0FB1DD6
:1041A00060221A702D4B1B685B6819782B4B1B68BB
:1041B0001B681A79FB1D081C111C012202F0AEF8C5
:1041C000031C01225340DBB2002B02D001235B42CF
:1041D0003FE0322002F0F0FA204B1B685B7C002BA2
:1041E00003D0FB1D01221A7002E0FB1D00221A7091
:1041F0001A4B1B685B681978184B1B681B689A7C04
:10420000FB1D081C111C012202F088F8031C01226E
:104210005340DBB2002B02D001235B4219E00F4B6D
:104220001B685B6819780D4B1B681B685A790B4B30
:104230001B681033081C111C012202F06FF8031CCC
:1042400001225340DBB2002B02D001235B4200E08D
:104250000023181CBD4602B080BDC046A406002045
:1042600080B582B000AF7860144B1B681B7A012BBD
:104270000CD002DC002B05D017E0022B0BD0032B57
:104280000ED012E07B68FA221A8012E07B68FA22D4
:1042900052001A800DE07B68FA2292001A8008E032
:1042A0007B68FA22D2001A8003E07B6800221A8021
:1042B000C0460023181CBD4602B080BDA4060020E5
:1042C00080B584B000AF021CBB1D1A80324B1B6846
:1042D0009B7A002B02D101235B4259E0BB1D1B8856
:1042E000FA225200934214D0FA225200934202DC86
:1042F000FA2B09D01CE0FA22920093420ED0FA2247
:10430000D20093420FD013E03B1C0F3300221A70EF
:1043100011E03B1C0F3308221A700CE03B1C0F33DA
:1043200010221A7007E03B1C0F3318221A7002E0AB
:1043300001235B422CE0184B1B681A7A3B1C0F339D
:104340001B78DB08DBB29A4201D1002320E0124B3C
:104350001B685B681978104B1B681B689A793B1CBB
:104360000F33081C111C012201F0D8FF031C01228D
:104370005340DBB2002B02D001235B4208E0064B26
:104380001B683A1C0F321278D208D2B21A7200237C
:10439000181CBD4604B080BDA406002080B582B0C4
:1043A00000AF7860184B1B685B7A012B0CD002DCE5
:1043B000002B05D014E0022B0AD0032B0CD00FE009
:1043C0007B6802221A700EE07B6804221A700AE0F1
:1043D0007B6808221A7006E07B6810221A7002E0DF
:1043E00001235B420BE0084B1B68DB7C002B05D0F4
:1043F0007B681B785B00DAB27B681A700023181C9C
:10440000BD4602B080BDC046A406002080B584B081
:1044100000AF021CFB1D1A702E4B1B689B7A002BF1
:1044200002D101235B4250E0FB1D1B78042B0DD011
:1044300002DC022B05D018E0082B0CD0102B0FD07B
:1044400013E03B1C0F3300221A7011E03B1C0F33AA
:1044500008221A700CE03B1C0F3310221A7007E080
:104460003B1C0F3318221A7002E001235B422CE040
:10447000184B1B685A7A3B1C0F331B78DB08DBB2E6
:104480009A4201D1002320E0124B1B685B68197827
:10449000104B1B681B68DA793B1C0F33081C111C7E
:1044A000012201F03BFF031C01225340DBB2002B31
:1044B00002D001235B4208E0064B1B683A1C0F3216
:1044C0001278D208D2B25A720023181CBD4604B02A
:1044D00080BDC046A406002080B582B000AF7860E1
:1044E000154B1B68DB7A062B1CD89A00134BD3188C
:1044F0001B689F467B68BC221A8017E07B6862229B
:104500001A8013E07B682A221A800FE07B6814224D
:104510001A800BE07B680A221A8007E07B6805227C
:104520001A8003E07B6800221A80C0460023181C12
:10453000BD4602B080BDC046A40600202CD90000B4
:1045400080B584B000AF021CBB1D1A80374B1B68BE
:104550009B7A002B02D101235B4262E0BB1D1B88CA
:10456000BB2B04D93B1C0F3301221A7030E0BB1D5A
:104570001B88612B04D93B1C0F3302221A7027E0E1
:10458000BB1D1B88292B04D93B1C0F3303221A7037
:104590001EE0BB1D1B88132B04D93B1C0F330422C8
:1045A0001A7015E0BB1D1B88092B04D93B1C0F3367
:1045B00005221A700CE0BB1D1B88042B04D93B1C80
:1045C0000F3306221A7003E03B1C0F3307221A70C8
:1045D000164B1B68DA7A3B1C0F331B789A4201D1C9
:1045E00000231EE0114B1B685B6819780F4B1B689A
:1045F0001B689A783B1C0F33081C111C012201F028
:104600008DFE031C01225340DBB2002B02D001239C
:104610005B4206E0054B1B683A1C0F321278DA72D7
:104620000023181CBD4604B080BDC046A40600206F
:1046300080B582B000AF7860094B1A682423D35C40
:10464000002B02D001235B4205E0054B1B68DA8991
:104650007B681A800023181CBD4602B080BDC0468E
:10466000A406002090B585B000AF021CBB1D1A80C7
:10467000434B1B689B7A002B02D101235B427AE0FB
:104680003F4B1A682423D35C002B02D001235B42EA
:1046900071E03B4B1B681B7D002B12D0BB1D1B88A0
:1046A000002B0BD0BB1D1B88282B07D8BB1D1B88DC
:1046B000DBB2181CFFF764F900235CE00020FFF771
:1046C0005FF9BB1D1B88032B03D8BB1D04221A8076
:1046D00009E0BB1D1A88FA239B009A4203D9BB1D2F
:1046E000FA2292001A80BB1D1B88FA229000191C26
:1046F00004F044FE031CDBB2013BDAB23B1C0F3377
:104700001A701F4B1B685B6819781D4B1B681B6870
:104710005A783B1C0F33081C111C012201F0FEFDCE
:10472000031C01225340DBB2002B02D001235B4269
:1047300021E0134B1C683B1C0F331B780133FA221A
:104740009000191C04F01AFE031C9BB2E3810C4B71
:104750001B681B8D9AB20A2A00D90A239BB2181C27
:1047600000F020F8064B1B68DB895B089BB2181C25
:10477000FFF7E6FE0023181CBD4605B090BDC046FD
:10478000A406002080B582B000AF7860044B1B689F
:104790001A8D7B681A800023181CBD4602B080BDAC
:1047A000A406002090B585B000AF021CBB1D1A8086
:1047B000BB1D1B88002B0AD0264B1B68DB89BA1D4A
:1047C00012889A4203D8BB1D1B880A2B02D90123E9
:1047D0005B423BE01F4B1B68DA89BB1D1B88101C2A
:1047E000191C04F07DFD031C9BB2DBB2013BDAB265
:1047F0003B1C0F331A70174B1B685B681978154BFD
:104800001B681A682523D25C3B1C0F33081C111C43
:10481000012201F083FD031C01225340DBB2002B77
:1048200002D001235B4211E00A4B1C68094B1B6854
:10483000DB891A1C3B1C0F331B780133101C191C1D
:1048400004F09CFD031C9BB223850023181CBD466D
:1048500005B090BDA406002080B582B000AF78609E
:10486000124B1B681B7A012B0CD002DC002B05D0ED
:1048700014E0022B0AD0032B0CD00FE07B680C4A0B
:104880001A600EE07B680B4A1A600AE07B680A4AED
:104890001A6006E07B68094A1A6002E001235B4265
:1048A00000E00023181CBD4602B080BDA406002015
:1048B0000000034300008342333303423333834118
:1048C00080B582B000AF7860194B1B685B7A012B12
:1048D0000DD002DC002B05D017E0022B0BD0032BF0
:1048E0000ED012E07B688022D2011A8010E07B6833
:1048F000104A1A800CE07B68802252011A8007E07F
:104900007B68802212011A8002E001235B420BE0E7
:10491000074B1B68DB7C002B05D07B681B885B0882
:104920009AB27B681A800023181CBD4602B080BD75
:10493000A40600209C1F000080B582B000AF786004
:10494000044B1B681A7C7B681A700023181CBD4638
:1049500002B080BDA406002080B584B000AF021C68
:10496000FB1D1A700023FB60FB1DFA1D127801214C
:104970008A431A70294B1A682423D35C002B01D078
:10498000002347E0254B1B689B7A002B02D10123B3
:104990005B423FE0214B1A683B1C0B33127C1A70C0
:1049A0001E4B1A681D4B1B689B7AF91D09780B403A
:1049B000DBB21374194B1B681B7CFA1D12789A42E8
:1049C00003D001235B42FB6001E00023FB60FB1D81
:1049D0001B78002B04D1114B1B681B7D002B03D0CF
:1049E0000120FEF729FD02E00020FEF725FDFB1D5A
:1049F0001B78002B0DD0FFF7CBFA031C002B08D03F
:104A0000064B1B683A1C0B3212781A7401235B4266
:104A100000E0FB68181CBD4604B080BDA406002061
:104A200080B582B000AF7860084B1B689B7A002B82
:104A300003D07B6801221A7002E07B6800221A70A2
:104A40000023181CBD4602B080BDC046A40600204D
:104A500080B584B000AF021CFB1D1A70FB1D1A78D4
:104A60007023134004D03B1C0F3301221A700CE05A
:104A7000FB1D1B78002B04D03B1C0F3300221A7047
:104A800003E03B1C0F3340221A708C4B1B685B68A1
:104A900019788A4B1B681B689A7D3B1C0F33081CD6
:104AA000111C012201F03AFC031C01225340DBB22D
:104AB000002B06D0814B1B6800229A7201235B42B7
:104AC000F8E07E4B1B683A1C0F32127840218A4373
:104AD000D2B21A733B1C0F3300221A70FB1D1A78D6
:104AE0004023134008D13B1C0F331B78042213438F
:104AF000DAB23B1C0F331A70FB1D1A7820231340C7
:104B000008D13B1C0F331B7802221343DAB23B1C43
:104B10000F331A70FB1D1A781023134008D13B1C69
:104B20000F331B7801221343DAB23B1C0F331A7088
:104B3000FB1D1A780823134008D13B1C0F331B7848
:104B400038221343DAB23B1C0F331A705B4B1B68DD
:104B50005B681978594B1B681B68DA7D3B1C0F3367
:104B6000081C111C012201F0D9FB031C0122534037
:104B7000DBB2002B06D0514B1B6800229A72012336
:104B80005B4297E0FB1D1B78002B06D0FB1D1B78BA
:104B9000082B02D0002000F0CDFC484B1B685B685E
:104BA0001978464B1B681B681A793B1C0E33081C8E
:104BB000111C012201F05AFC031C002B02D101231D
:104BC0005B4277E0FB1D1A78012313400DD03B1C9C
:104BD0000F3301221A703B1C0E331B782022134323
:104BE000DAB23B1C0E331A700CE03B1C0F33002270
:104BF0001A703B1C0E331B7820229343DAB23B1C05
:104C00000E331A702D4B1A682423D35C002B0AD064
:104C10003B1C0E331B78802252421343DAB23B1CFA
:104C20000E331A7008E03B1C0E331A787F231340B2
:104C3000DAB23B1C0E331A70204B1B685B68197884
:104C40001E4B1B681A682723D25C3B1C0F33081CC1
:104C5000111C012201F062FB031C01225340DBB254
:104C6000002B02D001235B4224E0144B1B685B68DD
:104C70001978124B1B681B681A793B1C0E33081CF1
:104C8000111C012201F04AFB031C01225340DBB23C
:104C9000002B02D001235B420CE0084B1B68FA1D7D
:104CA00012789A72054B1B6800221A75322001F0A7
:104CB00083FD0023181CBD4604B080BDA40600205F
:104CC00080B584B000AF7860164B1B689B7A002BD0
:104CD00002D101235B4221E0124B1B685B6819780B
:104CE000104B1B681B68DA7C3B1C0C33081C111C26
:104CF000022201F0BBFB031C002B02D101235B420B
:104D00000CE03B1C0C331B781B029AB23B1C0C338F
:104D10005B7813439AB27B681A800023181CBD4647
:104D200004B080BDA406002080B58AB000AFF86052
:104D3000B9607A603B603B1C273300221A703B1C31
:104D4000243300221A80634B1A682423D35C002B7F
:104D500002D001235B42C3E13B6800221A705D4B25
:104D60001B689B7A002B02D102235B42B8E1594BAE
:104D70001B681B7C002B02D103235B42B0E1554B27
:104D80001B681B7C1A1C4023134006D03B1C273396
:104D90003A1C2732127802321A704E4B1B681B7C69
:104DA0001A1C2023134006D03B1C27333A1C273201
:104DB000127802321A70474B1B681B7C1A1C102396
:104DC000134006D03B1C27333A1C2732127802329C
:104DD0001A70404B1B681B7C1A1C0823134006D01A
:104DE0003B1C27333A1C2732127806321A70394B93
:104DF0001B685B681978374B1B681B681A7B3B1C68
:104E00001433081C111C022201F030FB031C002B80
:104E100002D104235B4263E13B1C14331B781B0269
:104E20009AB23B1C14335B7813439AB23B1C223377
:104E30001A803B1C27331B789BB23A1C2232128803
:104E40009A4201D200234BE1224B1B685B685B88CE
:104E50005B089BB23A1C223212889A4220D91D4B21
:104E60001B685B6819781B4B1B681B681A7D3B1C11
:104E70001433081C111C012201F0F8FA031C002B4A
:104E800002D105235B422BE13B1C14331B781A1C17
:104E90001023134004D0FFF77BF806235B421FE189
:104EA0007B68181C01F062FC0A4B1B685B68187871
:104EB000084B1B681B68997B3B1C27331A783B1CEB
:104EC000143301F0D3FA031C002B05D107235B42F6
:104ED00006E1C046A40600203B1C22331A883B1C76
:104EE00027331B78101C191C04F048FA031CDBB292
:104EF000013BDAB23B6B1A703B6800221A703B1C14
:104F000027331B789BB23A1C243212889A4251D024
:104F1000754B1B681B7C1A1C082313404AD03B1C92
:104F200024331B883A1C1432D35C1B029AB23B1CFC
:104F300024331B880133391C1431CB5C13439AB2E0
:104F4000BB681A80BB6802333A1C243212880232D2
:104F5000391C14318A5C120291B23A1C2432128834
:104F60000332381C1430825C0A4392B21A80BB6848
:104F700004333A1C243212880432391C14318A5CFE
:104F8000120291B23A1C243212880532381C1430B5
:104F9000825C0A4392B21A803B681B780822134352
:104FA000DAB23B681A703B1C24333A1C2432128854
:104FB00006321A803B1C27331B789BB23A1C2432E2
:104FC00012889A4227D0484B1B681B7C1A1C40232E
:104FD000134020D03B1C24331B883A1C1432D35C72
:104FE0001B029AB23B1C24331B880133391C143139
:104FF000CB5C13439AB2FB681A803B681B78402253
:105000001343DAB23B681A703B1C24333A1C243237
:10501000128802321A803B1C27331B789BB23A1C41
:10502000243212889A4228D02F4B1B681B7C1A1CF2
:105030002023134021D0FB6802333A1C243212880B
:10504000391C14318A5C120291B23A1C2432128843
:105050000132381C1430825C0A4392B21A803B68D9
:105060001B7820221343DAB23B681A703B1C2433AE
:105070003A1C2432128802321A803B1C27331B78D8
:105080009BB23A1C243212889A4228D0164B1B68D5
:105090001B7C1A1C1023134021D0FB6804333A1CDC
:1050A00024321288391C14318A5C120291B23A1CE3
:1050B000243212880132381C1430825C0A4392B2C6
:1050C0001A803B681B7810221343DAB23B681A70CF
:1050D0003B1C24333A1C2432128802321A800023EB
:1050E000181CBD460AB080BDA406002080B586B05D
:1050F00000AFB9607A603B1C0E33021C1A80714B02
:105100001A682423D35C002B02D101235B42D4E034
:105110006C4B1B689B7A002B10D16B4B181CFCF757
:1051200039FC684B1B689B7A181CFCF75DFC674BCD
:10513000181CFCF72FFC02235B42BEE0614B1B688E
:105140001B7C002B02D103235B42B6E05D4B1B6846
:105150005B6819785B4B1B681B681A7B3B1C14331C
:10516000081C111C022201F081F9031C002B02D142
:1051700003235B42A1E03B1C14331B781B029AB251
:105180003B1C14335B7813439AB23B1C16331A80D2
:105190003A1C16323B1C0E3312881B889A421DD2D1
:1051A0007B6800221A704A4B181CFCF7F3FB3B1C6F
:1051B00016331B88181CFCF717FC464B181CFCF711
:1051C000E9FB3B1C0E331B88181CFCF70DFC3F4B06
:1051D000181CFCF7DFFB04235B426EE0394B1B68B5
:1051E0005B685B885B089BB23A1C163212889A4255
:1051F0003CD9344B1B685B681978324B1B681B68C1
:105200001A7D3B1C1433081C111C012201F02EF9DD
:10521000031C002B02D105235B424EE03B1C1433E0
:105220001B781A1C1023134020D02B4B181CFCF7A2
:10523000B1FB2A4B181CFCF7ADFB3B1C16331B883B
:10524000181CFCF7D1FB234B181CFCF7A3FB3B1CE1
:105250000E331B88181CFCF7C7FB1C4B181CFCF7F3
:1052600099FBFEF795FE06235B4226E0154B1B6873
:105270005B681878134B1B681B68997B3B1C0E33CB
:105280001B88DAB2BB6801F0F1F8031C002B02D1D5
:1052900007235B4211E03A1C16323B1C0E33128886
:1052A0001B88101C191C04F01BF8031C9BB2DBB2FA
:1052B000013BDAB27B681A700023181CBD4606B0A9
:1052C00080BDC046A406002048D900008CD800004C
:1052D00070D9000088D9000094D90000BCD9000022
:1052E00080B584B000AF021CFB1D1A70864B1B6892
:1052F0009B7CFA1D12789A4201D10023FFE0FB1D2E
:105300001B78002B00D174E07F4B1B685B68197819
:105310007D4B1B681B681A793B1C0F33081C111C42
:10532000012201F0A3F8031C002B02D101235B42F0
:10533000E5E03B1C0F331B7820229343DAB23B1C81
:105340000F331A70704B1B685B6819786E4B1B68C3
:105350001B681A793B1C0F33081C111C012200F03A
:10536000DDFF031C01225340DBB2002B02D00123DE
:105370005B42C4E0032001F01FFA3B1C0F33022202
:105380001A70614B1A682223D35C002B09D03B1C96
:105390000F331B78802252421343DAB23B1C0F3387
:1053A0001A70594B1A682323D35C002B08D03B1C7E
:1053B0000F331B7830221343DAB23B1C0F331A70C1
:1053C000514B1B685B6819784F4B1B681B681A7E32
:1053D0003B1C0F33081C111C012200F09FFF031C13
:1053E00001225340DBB2002B00D182E001235B425B
:1053F00085E0454B1B685B681978434B1B681B684D
:105400001A793B1C0F33081C111C012201F02EF8E5
:10541000031C002B02D101235B4270E03A4B1B6856
:105420009B7A1A1C0123134009D03B1C0F331B78B5
:1054300020221343DAB23B1C0F331A7008E03B1CE6
:105440000F331B7820229343DAB23B1C0F331A70C0
:105450002D4B1B685B6819782B4B1B681B681A79EE
:105460003B1C0F33081C111C012200F057FF031CCA
:1054700001225340DBB2002B02D001235B423EE00D
:10548000032001F099F9204B1A682223D35C002BEA
:1054900004D03B1C0F3380221A7003E03B1C0F33F7
:1054A00000221A70184B1A682323D35C002B08D0F3
:1054B0003B1C0F331B7830221343DAB23B1C0F33F3
:1054C0001A70114B1B685B6819780F4B1B681B68BF
:1054D0001A7E3B1C0F33081C111C012200F01EFF1A
:1054E000031C01225340DBB2002B02D001235B429C
:1054F00005E0054B1B68FA1D12789A740023181CEE
:10550000BD4604B080BDC046A406002080B582B070
:1055100000AF021CFB1D1A70054B1A68F91D2223EF
:105520000978D1540023181CBD4602B080BDC04686
:10553000A406002080B584B000AF021CFB1D1A70C9
:105540002B4B1A682323D35CFA1D12789A4201D19F
:10555000002349E0FB1D1B78002B04D03B1C0F33BC
:1055600030221A7003E03B1C0F3300221A70204BCC
:105570001B689B7C002B08D03B1C0F331B7802223E
:105580001343DAB23B1C0F331A70194B1A682223EB
:10559000D35C002B09D03B1C0F331B788022524276
:1055A0001343DAB23B1C0F331A70114B1B685B6854
:1055B00019780F4B1B681B681A7E3B1C0F33081CA5
:1055C000111C012200F0AAFE031C01225340DBB291
:1055D000002B02D001235B4206E0054B1A68F91D3F
:1055E00023230978D1540023181CBD4604B080BD84
:1055F000A406002080B584B000AF3A60BB1D021C39
:105600001A803B1D0A1C1A803B68002B02D1012323
:105610005B4255E02C4B1B689B7A002B02D1022386
:105620005B424DE0BB1D1B881B0A9BB2DAB23B1CE0
:105630000C331A70BB1D1B88DAB23B1C0C335A703A
:105640003B1C0C335B781A1C3B1D1B88D2181E4B6D
:105650001B685B685B899A4202DD03235B422FE093
:10566000194B1B685B681978174B1B681B681A7FFE
:105670003B1C0C33081C111C022200F04FFE031CC3
:1056800001225340DBB2002B02D004235B4217E01F
:105690000D4B1B685B6818780B4B1B681B68597EA9
:1056A0003B1D1B88DAB23B6800F038FE031C012268
:1056B0005340DBB2002B02D005235B4200E0002305
:1056C000181CBD4604B080BDA406002080B584B07F
:1056D00000AF3A60BB1D021C1A803B1D0A1C1A80D9
:1056E0003B68002B02D101235B4252E02B4B1B682D
:1056F0009B7A002B02D101235B424AE0BB1D1B8831
:105700001B0A9BB2DAB23B1C0C331A70BB1D1B8800
:10571000DAB23B1C0C335A703B1C0C335B781A1CFE
:105720003B1D1B88D2181D4B1B685B685B899A4226
:1057300002DD01235B422CE0184B1B685B68197883
:10574000164B1B681B681A7F3B1C0C33081C111C72
:10575000022200F0E3FD031C01225340DBB2002BC8
:1057600002D001235B4214E00C4B1B685B68187885
:105770000A4B1B681B68597E3B1D1B88DAB23B68CD
:1057800000F074FE031C002B02D101235B4200E0F9
:105790000023181CBD4604B080BDC046A4060020EE
:1057A00080B58CB000AFB960111C1A1C3B1C0E33C5
:1057B00018803B1C0C331980BB1D1A803B1C2C33FA
:1057C00000221A803B1C183300221A600433002286
:1057D0001A60043300221A60043300221A60043372
:1057E000544B1A682523D35C002B02D001235B4263
:1057F0009CE0BB68002B02D102235B4296E03B1C7D
:105800002E3300221A8056E03B1C0E331A883B1CB4
:105810002E331B88D31A102B00DD10233A1C2C3298
:1058200013803B1C2E331B88BA68D3183A1C2E32C7
:1058300011883A1C2C321288081C111C1A1CFFF704
:10584000D9FE031C002B02D003235B426EE03B1CFD
:105850002E3319883B1C2C331A883B1C1833081C28
:10586000111C1A1CFFF732FF031C002B02D004236B
:105870005B425BE03B1C2E331B88BA68D1183B1C93
:105880002C331B883A1C1832081C111C1A1C06F0F9
:10589000C7FD031CBB62BB6A002B02D005235B4221
:1058A00044E03B1C2E33391C2E313A1C2C32098823
:1058B00012888A181A803A1C2E323B1C0E3312882A
:1058C0001B889A42A0D33B1C0C331B881B0A9BB23B
:1058D000DAB23B1C14331A703B1C0C331B88DAB24F
:1058E0003B1C14335A70134B1B685B681978114BBF
:1058F0001B681B689A7F3B1C1433081C111C022276
:1059000000F00CFD031C01225340DBB2002B02D03F
:1059100006235B420AE0074B1A6825230121D15474
:10592000044B1B68BA1D1288DA840023181CBD467C
:105930000CB080BDA406002080B584B000AF021C6E
:10594000FB1D1A702E4B1A682423D35CFA1D1278A3
:105950009A4201D100234EE0FB1D1B78002B2ED074
:10596000274B1A682523D35C002B02D101235B420D
:1059700041E00020FDF760FD0020FFF7B1FC204B67
:105980001B68DB8C181CFEF76DFE3B1C0F330022DE
:105990001A701B4B1B685B681A783B1C0F33101C7A
:1059A0002321012200F0BAFC154B1A68242301219F
:1059B000D1540120FDF740FDFEF7EAFA1AE000207D
:1059C000FDF73AFD0E4B1B681A7C3B1C0F331A7017
:1059D0000B4B1B685B681A783B1C0F33101C232190
:1059E000012200F09BFC064B1A6824230021D154AD
:1059F000FEF7CEFA0023181CBD4604B080BDC04699
:105A0000A406002080B582B000AF7860054B1A680C
:105A10002423D25C7B681A700023181CBD4602B098
:105A200080BDC046A406002080B584B000AF012030
:105A3000FFF756FC3B1C0F3318221A701BE03B1C6F
:105A40000F331A783B1D101C0021012200F00EFDBF
:105A5000031C5A425341DBB2BB60BB68002B03D12D
:105A60003B1D1B78482B0CD03B1C0F333A1C0F32CC
:105A7000127801321A703B1C0F331B781E2BDED9B3
:105A800000E0C0463B1C0F331B781E2B06D9E14BB0
:105A9000181CFBF77FFF01235B42C6E1DE4B1A684F
:105AA000391C0F312A230978D1543B1D00221A706A
:105AB000D94B1A682A23D25C3B1D101C0A210122F3
:105AC00000F02CFC031C01225340DBB2002B02D05F
:105AD00002235B42A9E1012000F06EFE3B1D0F2274
